:100000000C942A000C944D000C944D000C944D005F
:100010000C944D000C944D000C944D000C944D002C
:100020000C944D000C944D000C944D000C944D001C
:100030000C944D000C944D000C944D000C944D000C
:100040000C944D000C944D000C944D000C944D00FC
:100050000C944D0011241FBECFE5D8E0DEBFCDBF0C
:0C0060000E9436000C943400F894FFCF8E
:10006C000E9444000E944900B09B04C0AA9AAF9A17
:0C007C00939AFACFAA98AF989398F6CF09
:0A00880084B3846884BB8B9A08954A
:08009200B8988E988A98089531
:04009A000C940000C2
:00000001FF
